:020000040800F2
:10000000005300207D0200085F5A00087B4800086A
:100010005D5A0008810D00086978000800000000A2
:10002000000000000000000000000000C101000806
:100030002114000800000000150200084D6F0008A0
:10004000970200089702000897020008970200082C
:10005000970200089702000897020008970200081C
:10006000970200089702000897020008970200080C
:1000700021110008970200082D11000897020008BE
:10008000391100084511000897020008AD0D00085D
:10009000A10D0008970200089702000897020008C7
:1000A00097020008970200089702000897020008CC
:1000B00097020008970200089702000897020008BC
:1000C00097020008970200089702000897020008AC
:1000D00097020008057800082D78000897020008AC
:1000E000970200089702000897020008970200088C
:1000F000970200089702000897020008970200087C
:1001000097020008755F0008970200089702000830
:100110009702000897020008717000089702000813
:1001200097020008511100085D11000897020008AD
:10013000970200089702000897020008C50D000802
:10014000B90D0008970200089702000897020008FE
:100150009702000871110008970200085D780008F6
:10016000970200089702000897020008970200080B
:10017000970200089702000897020008000000009C
:1001800097020008970200089702000897020008EB
:1001900097020008970200089702000897020008DB
:1001A000000000000000000097020008DFF80CD0FB
:1001B00000F0EEFB00480047E194000800530020E7
:1001C0002B4B19680868B0E8F04F80F30988BFF33B
:1001D0006F8F4FF0000080F311887047000000001F
:1001E00006480068006880F3088862B661B6BFF30D
:1001F0004F8FBFF36F8F00DF00BF00BF08ED00E03F
:10020000DFF80C00016841F470010160704700BF25
:1002100088ED00E0EFF30980BFF36F8F144B1A688D
:100220001EF0100F08BF20ED108A20E9F04F10607B
:1002300008B44FF0500080F31188BFF34F8FBFF325
:100240006F8F0AF003F94FF0000080F3118808BCAB
:1002500019680868B0E8F04F1EF0100F08BFB0EC46
:10026000108A80F30988BFF36F8F704700BF00BF0B
:10027000A8010020EFF30580704700000648804782
:1002800006480047FEE7FEE7FEE7FEE7FEE7FEE77B
:10029000FEE7FEE7FEE7FEE71D700008AD0100087F
:1002A0002DE9F05F0546002092469B4688460646AB
:1002B000814640241BE0284641464746224600F03E
:1002C0002AFA53465A46C01A914110D3114618468D
:1002D000224600F011FA2D1A67EB01084F4622461C
:1002E0000120002100F008FA17EB00094E41201E02
:1002F000A4F10104DFDC484631462A464346BDE806
:10030000F09F40EA01039B0703D009E008C9121FD0
:1003100008C0042AFAD203E011F8013B00F8013BBF
:10032000521EF9D27047D2B201E000F8012B491EEB
:10033000FBD270470022F6E710B513460A46044682
:100340001946FFF7F0FF204610BD2DE9FE4F80460D
:1003500081EA0300C00F0C46009021F0004123F019
:100360000045B8EB0200A94105D24046214690461F
:100370001C460B46024623F00040104347D0270D91
:10038000C7F30A00C3F30A510290401A01904028B3
:100390006BDAC3F3130040F4801B0098924620B13F
:1003A0000023D2EB030A63EB0B0B01985946C0F113
:1003B0004002504600F0A0F906460D465046594608
:1003C000019A00F0B8F910EB08006141002487EAB7
:1003D000115284EAE7731A4340D0009A62B3019A3B
:1003E000012A4FEA075215DC001B61EB02014FF0B6
:1003F000004202EA0752CDE90042001C41F580119B
:1004000032462B4600F0EFF903B0BDE8F08F4046CE
:100410002146F9E7001B61EB0201001C41F5801346
:1004200000185B412018A2F5001747EB030140EAD2
:10043000D570B6196D4111E06D084FEA360645EAF0
:10044000C0754FEA0752001B61EB0201001C41F529
:10045000801149084FEA30000019514132462B46BD
:1004600003B0BDE8F04F00F0AFB9009801224000A2
:100470000023D0EB020263EBE073009821464FEAC1
:10048000E074B8EB000061EB0401E9E783F000439E
:100490005BE781F0004158E72DE9FE4F81EA030454
:1004A00004F0004421F0004100944FF0000B23F0D1
:1004B000004350EA01045ED052EA03045BD0C3F368
:1004C0000A54C1F30A552C44A4F2F3340194A0FB5E
:1004D0000254C1F3130141F48011C3F3130343F435
:1004E000801301FB024400FB034E840A970A44EA8E
:1004F000815447EA8357A4FB076802958D0A05FBE0
:1005000007854FEA932C04FB0C542705029D4FEA04
:10051000065847EA1637B5EB08056EEB070C870E51
:10052000920E47EA811742EA8312A7FB0201B6EB5B
:100530000B0164EB00042B0D43EA0C335E1844EB13
:100540001C50DA465146E7FB0201C5F313044FEA9B
:100550000B3343EA14534FEA0432019C43EA060387
:10056000A4F10C040294009CCDE900B400F03BF926
:1005700003B0BDE8F08F00200146F9E7F0B4CA17D8
:10058000CB0F50405140C61841F100054FEAC372ED
:10059000314628004FF0960303D0B623F0BC00F09C
:1005A000E5B830460021F9E70EB5C10F80EAE070EA
:1005B0000844CA07002140F233438DE80E000A4682
:1005C0000B4600F010F903B000BD3EB5CA17CB0FC3
:1005D000002450405140C0186141DA0740F23343D3
:1005E0000094CDE901232246234600F0FCF803B035
:1005F00030BD70B5C1F30A5201F000450024C1F3CB
:10060000130140F2FF3341F480119A4202DA0020D4
:10061000014670BD40F233439A42A2F2334203DCFA
:10062000524200F078F801E000F066F82C43F0D078
:100630000023D0EB030063EB010170BD00F000422A
:1006400030F000400AD0C10D01F56071C0F3160012
:1006500042EA0151C2084007114370470020014699
:100660007047000030B5041E71F1000404DB4FF048
:100670000044404264EB0101141E73F1000405DBE9
:100680001C464FF00043524263EB0403994208BFFB
:10069000904230BD01F0004330B421F0004150EAF7
:1006A000010206D00A0DA2F56072C1F31301002AFF
:1006B00002DC30BC00207047440F44EAC104C10092
:1006C000E01830BC00EBC25000F047B830B50B4624
:1006D000014600202022012409E021FA02F59D4272
:1006E00005D303FA02F5491B04FA02F52844151E46
:1006F000A2F10102F1DC30BD202A04DB203A00FA2D
:1007000002F1002070479140C2F1200320FA03F368
:10071000194390407047202A04DB203A21FA02F066
:100720000021704721FA02F3D040C2F1200291402B
:10073000084319467047202A06DBCB17203A41FAB6
:1007400002F043EAE07306E041FA02F3D040C2F15E
:10075000200291400843194670470029A8BF7047FE
:10076000401C490008BF20F00100704710B4B0FAE7
:1007700080FC00FA0CF050EA010404BF10BC704782
:1007800049B1CCF1200421FA04F411FA0CF118BF9C
:10079000012121430843A3EB0C01CB1D4FEA00616B
:1007A0004FEA102042BF002010BC704700EBC3503E
:1007B00010440029A4BF10BC7047401C490008BF6A
:1007C00020F0010010BC704710B5141E73F1000436
:1007D00008DA401C41F1000192185B411A4301D133
:1007E00020F0010010BD2DE9F04D92469B4611B15D
:1007F000B1FA81F202E0B0FA80F220329046FFF7BF
:100800007BFF04460F4640EA0A0041EA0B015346CB
:100810005A46084313D0114653EA010019D0C8F1D3
:1008200040025046FFF777FF05460E4650465946B0
:100830004246FFF761FF084305D0012004E020464F
:100840003946BDE8F08D0020054346EAE0762C43AA
:1008500037430A986305E40AA0EB08000022FD0A6A
:1008600044EA47540A3002D500200146E9E7010571
:1008700010196941DDE9084500196941BDE8F04DED
:10088000A2E72DE9F04D81EA030404F0004B21F0CA
:10089000004514464FF0000A23F0004150EA0502DB
:1008A00020D054EA01021DD0C5F30A570246C5F311
:1008B0001303C1F31300C1F30A5640F4801543F447
:1008C0008013A7EB0608101BD64608F2FD3873EB21
:1008D000050002D308F1010801E092185B41B8F16C
:1008E000000F03DA00200146BDE8F08D00204FF430
:1008F0008011064684460EE0171B73EB050705D3EF
:10090000121B63EB050306434CEA010C49084FEA4E
:10091000300092185B4150EA0107EDD152EA030022
:1009200012D082EA040083EA0501084305D0101BB7
:10093000AB4106D20122002306E000224FF0004323
:1009400002E06FF0010253101AEB06004CEB085165
:1009500010EB0A0041EB0B01BDE8F04DFFF734BF8F
:10096000C1F30A52C1F3130140F2FF3341F4801185
:100970009A4202DA00200146704740F233439A421D
:10098000A2F2334202DC5242FFF7C5BEFFF7B4BE0B
:10099000064C074D06E0E06840F0010394E80700CC
:1009A00098471034AC42F6D3FFF704FC4CB0000873
:1009B0006CB000082DE9F04D00231A461B1A8A413D
:1009C00003DB00200146BDE8F08DC1F30A52C1F3FC
:1009D000130141F480154FF0000BD10702D100182C
:1009E0006D41521E0027044640F2FF11384601EBCC
:1009F000620A3E468046024600204FF48011FFF70F
:100A00008AFEC2197141BB1846EB0100B4EB030C1E
:100A100075EB000C04D3E41A65EB000517460E468F
:100A2000241908F101006D4180463428E3DDF919ED
:100A300046EB0600091BA84103D24FF0FF321346D4
:100A400001E0002213461BEB070046EB0A51BDE80C
:100A5000F04DFFF7B9BE70B58C1810F8015B15F0BA
:100A6000070301D110F8013B2A1106D110F8012B20
:100A700003E010F8016B01F8016B5B1EF9D12B0745
:100A800005D40023521E0DD401F8013BFAE710F8FB
:100A9000013BCB1A921C03E013F8015B01F8015BE8
:100AA000521EF9D5A142D8D3002070BD30B55749A8
:100AB000012387B00A784C78B2FBF4F004FB1025D0
:100AC0005348641EA54200D183708C78B2FBF4F5C4
:100AD00004FB1525641EA54200D14370CC78B2FBFF
:100AE000F4F504FB1525641EA54200D143720C7970
:100AF000B2FBF4F504FB1525641EA54200D1C372B8
:100B00004C79B2FBF4F504FB1525641EA54200D117
:100B10000373521C0A70027800215AB101700091CF
:100B20004FF4C87364224FF49671042000F0F2F879
:100B300007B030BD42780AB14170F9E78278EAB374
:100B400081703448B0F90020334890ED120ABDEEB0
:100B5000C00A10EE103A90ED040ACDE90421BDEE72
:100B6000C00A1BB22E4A10EE100A00B2CDE90203F1
:100B70002A4890ED060ABDEEC00A10EE101A92ED5A
:100B80000A0A09B2BDEEC00A10EE102A12B2CDE96F
:100B9000002190ED0A0ABDEEC00A10EE100A03B261
:100BA000204890ED060ABDEEC00A10EE101A0AB2F7
:100BB0001D4991ED0A0ABDEEC00A00E00CE010EEFE
:100BC000101A90ED0A0A09B2BDEEC00A10EE100A22
:100BD00000B200F035F8ABE7427A0AB14172A7E7FC
:100BE000C27A0AB1C172A3E7027B0AB101739FE71F
:100BF000C2780AB1C1709BE702790AB1017197E727
:100C00004279002A94D0417192E7000090010020BF
:100C10006511002034090020700A0020680B0020B4
:100C20003C0B0020100B0020E40A00200A46024979
:100C3000024803F002BE000072110020540500209B
:100C40002DE9F80708ACAA2594E8C013304C2570AC
:100C500065700225A570ADF800009DF801002071B7
:100C60009DF800006071ADF800109DF80100A071C2
:100C70009DF80000E071ADF800209DF801002072A1
:100C80009DF800006072ADF800309DF80100A07280
:100C90009DF80000E072ADF800609DF8010020733F
:100CA0009DF800006073ADF800709DF80100A0731E
:100CB0009DF80000E073ADF800809DF801002074FD
:100CC0009DF800006074ADF800909DF80100A074DC
:100CD0009DF80000E074ADF800C09DF8010020759B
:100CE0009DF80000607512201621E0700022104669
:100CF00023461C5C401C2244C0B2D2B28842F8D3C6
:100D00005A54BDE8F8070248491CFFF78FBF00009E
:100D1000721100203FB4194AAA21117051700021AC
:100D2000917010719DF8050050719DF8040090714C
:100D30009DF80900D0719DF8080010729DF80D1003
:100D400051729DF80C1091729DF81910D1729DF896
:100D50001810117309200D21D07000231846145C5F
:100D6000401C2344C0B2DBB28842F8D3535404B0D1
:100D7000024830BC491CFFF759BF00007211002027
:100D8000FEE7000001490020086070473418004069
:100D9000024A106001480830016070472C1800407A
:100DA000014800F09DBE000024020020014800F030
:100DB00097BE000024020020014800F091BE000010
:100DC0004C020020014800F08BBE00004C020020C5
:100DD000F0B5074600681449002401250E2695B099
:100DE00088420DD10494CDE90856059401940294EB
:100DF000009469460D480394CDE9064500F06CFD6A
:100E00000B49386888420DD1CDE90E4612950B94F6
:100E10000C940A940AA9074813960D94CDE910453D
:100E200000F05AFD15B0F0BD00640040240200201F
:100E3000006800404C02002010B50B4801F03CF95E
:100E40000221094800F0D0FC0748FFF7C1FF07481E
:100E500001F032F90221054800F0C6FCBDE810405F
:100E60000248FFF7B5BF0000240200204C0200201A
:100E700030B589B0082506950C9C00250290059593
:100E8000080A8DF800008DF80110100A8DF8020094
:100E9000180A8DF804008DF80530200A8DF8060038
:100EA0008DF8032004958DF8074001236A4602A9B6
:100EB000024800F0ADFC09B030BD00002402002063
:100EC00070B50C46054664A100F006F918B120463D
:100ED00008F08AFBB9E061A1284600F0FDF818B1DE
:100EE000204608F0B5FBB0E05DA1284600F0F4F81C
:100EF00018B1204608F0E0FBA7E05AA1284600F010
:100F0000EBF818B1204608F0FFFB9EE056A12846FA
:100F100000F0E2F80028DDD154A1284600F0DCF80A
:100F20000028D7D152A1284600F0D6F80028D1D108
:100F300050A1284600F0D0F80028CBD14EA1284679
:100F400000F0CAF80028C5D14CA1284600F0C4F82A
:100F500000287AD14AA1284600F0BEF8002874D1B2
:100F600048A1284600F0B8F800286ED146A12846CE
:100F700000F0B2F8002868D144A1284600F0ACF88F
:100F8000002862D142A1284600F0A6F800285CD1D2
:100F900040A1284600F0A0F8002856D13EA12846DE
:100FA00000F09AF8002850D13CA1284600F094F8AF
:100FB00000284AD13AA1284600F08EF8002844D1F2
:100FC00038A1284600F088F800283ED136A12846EE
:100FD00000F082F8C8BB35A1284600F07DF8A0BB20
:100FE00033A1284600F078F878BB32A1284600F0FB
:100FF00073F850BB30A1284600F06EF810B107F02E
:10100000BDFF22E02DA1284600F066F8E8B92CA12A
:10101000284600F061F8C0B92AA1284600F05CF823
:1010200098B929A1284600F057F870B927A1284699
:1010300000F052F848B926A1284600F04DF820B932
:1010400024A1284600F048F808B1002070BD2146D0
:10105000284607F015FEF8E72A3100002A32000082
:101060002A3300002A3400002A3500002A36000006
:101070002A3700002A3800002A39000023310000F6
:101080002332000023330000233400002335000006
:1010900023360000403100004032000040330000A1
:1010A000403400004035000040360000403700006A
:1010B0004038000040390000243100002432000094
:1010C00024330000243400002436000024370000BC
:1010D000243800002439000030B50C46054605F0E0
:1010E000DBFE0346204605F0D7FE83420AD10020EE
:1010F00004E0295C225C914204D1401C9842F8DB58
:10110000012030BD002030BD0022835C23B18B5410
:10111000521C642AF9DB00E08B5401207047000068
:10112000014801F055B8000034070020014801F0E3
:101130004FB8000094070020014801F049B80000B2
:1011400074060020014801F043B80000D4060020D6
:10115000014801F03DB80000F407002010B5034835
:1011600001F036F8BDE8104000F086B91406002002
:10117000014801F02DB80000540800200168182330
:10118000CAB2103AB2FBF3F2054B6FF30901032A1E
:101190009B5CC36500D9091D816508467047000046
:1011A000FAAE000810B5014600208B698A6A4FF03C
:1011B000C07453B1B3F5005F15D072B1012A0CD0E1
:1011C000022A0AD0032A09D104E01AB1012A06D062
:1011D000022A03D1C96AC90100D5012010BDC96A1C
:1011E000A142FAD010BD002AF7D0012AF2D0022A7B
:1011F000F3D0032AF3D010BD30B50468256825F478
:1012000080252560046863608368402B036803D0F1
:1012100099600068C26030BD9A600068C16030BDEE
:1012200030B51E4841F288330146C48AB1F9001036
:101230005A4264B1B0F902400C1B9C4202DD858A1F
:101240006D1E8582944202DA848A641C8482418005
:101250000124C482B0F91450C5EB453529444160DE
:1012600081600E49B0F85050B1F9381065B1B0F94D
:101270003A504D1B9D4202DDC36C5B1EC364954218
:1012800002DAC26C521CC2644187A0F85040C26CA2
:10129000C2EB42321144C163016430BD700A0020C8
:1012A00070B5184801460368B1F92220C3B1B0F9FE
:1012B000201041F28834511AA14206DDD0E90445DC
:1012C000641E45F1FF35C0E9044541F28834E1422E
:1012D00006DAD0E90414491C44F10004C0E90414FE
:1012E0000284D0E90454640344EAD544D1176D0361
:1012F00052196141C0E906210BB9C0E9022101215F
:10130000016070BD980B00202DE9F0478146002751
:10131000012605F0C1FD051E34D00024DFF86880E9
:101320002DE0621C2146484605F0BEFD17A1FFF7DF
:10133000D3FE88B122463946484605F0B5FD05F092
:1013400011FD10EE100AFFF779F908EBC602671CD1
:10135000C2E90001761C11E0281B01280ED12A46A3
:101360003946484605F0A0FD05F0FCFC10EE100AD9
:10137000FFF764F908EBC602C2E90001641CAC4245
:10138000CFDB3046BDE8F087780D0020200000005C
:1013900070B52149214B28280A780BD012B19854F6
:1013A000521C0A7029280BD10024D0B225461C54A7
:1013B0000C700BE0002AF2D1282018700120087070
:1013C00070BD5819407858556D1CEDB2134805F0A2
:1013D00063FD401EA842F4DC104805F05DFD184492
:1013E0000E4A00F8024C503AA2F114010B4805F0E5
:1013F000C9FA0A485038FFF787FF014607486438A2
:10140000FFF75EFD0549002050390C54401CC0B266
:101410006428FAD370BD000008010020AC0C002045
:1014200070470000F0B500220B4B15460126845C86
:1014300034B143F822508E54521C0B2AF7DBF0BD16
:1014400053F82240671C43F82270052CF4DD845CBD
:10145000002CF1D18D54EFE7A41000207047024614
:101460000020431E115C202904D011B1401C6428C7
:10147000F8DB184670470000F8B5334991F80CE0E6
:10148000BEF1020F59D24F7B022F56D22F4802686D
:10149000521C02600888C0F30A03A1F11400038003
:1014A0004A78D4088A7844EA4214C4F30A0545808D
:1014B000CC78920942EA84040A7944EA8224C4F38B
:1014C0000A0484804E79520842EAC612C2F30A0224
:1014D0004FEA961CC28080F808C0C6F30116467217
:1014E000CE8846810E8986814E89C68180F810E0BB
:1014F0004774C9894182B3F5806100D549424FF4F0
:1015000080660A2900DC33460380B5F5806100D58A
:1015100049420A2900DC35464580B4F5806100D592
:1015200049420A2900DC34468480B2F5806100D546
:1015300049420A2900DD1646C68005480068016850
:1015400040680090F8BD0000340C0020080900201D
:101550001405002030B51D4C0021606803F00EFC1E
:101560001B4D01212870A06803F008FC687002215F
:10157000E06803F003FCA8700321206903F0FEFB80
:10158000E8700421A06903F0F9FB28710521606966
:1015900003F0F4FB68710621E06903F0EFFBA8712A
:1015A0000721206A03F0EAFBE8710821606A03F072
:1015B000E5FB28720921A06A03F0E0FB68720A21AA
:1015C000206803F0DBFBA87230BD00000809002092
:1015D0009810002039480168394800293CDD394914
:1015E000DFED390ADFED3A1A4A88A2F5806200EE93
:1015F000102AB1F90C20B8EEC00A01EE102A60EEF4
:10160000200A9FED320AB8EEC11A60EE800A41EE60
:10161000210A90ED151A70EE810A9FED2E1AC0ED89
:10162000150A8A88B1F90A10C2F5806200EE902A84
:10163000F8EEE00A60EE810A9FED271A20EE800A9C
:1016400000EE901AF8EEE00A00EE810AD0ED070AEB
:1016500030EEC00A80ED070A90ED170AD0ED150AAA
:10166000B8EEC01AF4EEC10AF1EE10FA08DC90ED03
:10167000180AB8EEC01AF4EEC10AF1EE10FA03D25D
:10168000B8EEC00A80ED150A90ED090AD0ED070A00
:10169000B8EEC01AF4EEC10AF1EE10FA08DC90EDD3
:1016A0000A0AB8EEC01AF4EEC10AF1EE10FA03D23B
:1016B000B8EEC00A80ED070A704700000809002054
:1016C000700A0020200C002017B7D1380000B64166
:1016D000CDCC4C3E17B7513A8FC275BC164841F677
:1016E000844240F6B833B0F9381000EE101AB8EE64
:1016F000C00A80ED150AB0F9001000EE101AB8EE1D
:10170000C00A80ED070AC26541F68532826541F65E
:10171000060202660022994205DA4FF42F61C0E901
:101720000821064905E042F6EF21C0E9082141F60B
:101730002321816270470000700A002024FAFFFF15
:101740002048DFED1F0A9FED200AC0ED000A80ED62
:10175000010A80ED020A9FED1D1A80ED080A80ED56
:10176000091ADFED1B1A2C38C0ED001A80ED010AB2
:10177000DFED181A80ED020AC0ED081ADFED161A27
:10178000C0ED091A2C38C0ED000A80ED010A80ED89
:10179000020A80ED080A80ED091ADFED100A2C38E4
:1017A000C0ED000ADFED0E0AC0ED010A80ED020A6D
:1017B0009FED0C0A80ED080AC0ED091A7047000081
:1017C00000002042680B0020000000000000FA43E7
:1017D000000070420080BB450050C34600004842F4
:1017E0009A99993E00803B4590F82020012A09D023
:1017F00090F82020022A05D0416A41F480214162FC
:1018000001207047006842690A4342610020704726
:10181000F0B590F82040012C07D090F82040022C21
:1018200003D0416A41F4802153E00468A5686D014A
:1018300005D4A5682D0102D4A568ED0046D5A4689D
:101840000125C4F30164A5401D608D684FF4C07389
:101850009DB1CE6835434E6845EAC605066803EB80
:101860000417F5514FF4C275076805EB04150E69AE
:101870007E51097D012905D009E00E88CD6845EA31
:101880004655EBE701684E5946F480764E51117982
:10189000D2F805504FF4C67641EA0521056806EBFB
:1018A0000416A9511178D2F801204FF4C47541EA09
:1018B0000221026805EB04155151006803EB041185
:1018C000425842F0010242500020F0BD416A41F40A
:1018D000001141620120F0BD10B590F82020012ACE
:1018E00009D090F82020022A05D0416A41F48021D5
:1018F0004162012010BD3A48D0F8002242F00102B6
:10190000C0F80022D0F8002222F47C52C0F8002255
:10191000D0F800224B6A42EA0322C0F800220B7D75
:1019200001229A40D0F81C329343C0F81C32CB6994
:10193000B3B9D0F80C329343C0F80C328C894B68A1
:1019400064F31F434C6900EBC404C4F840320C89B3
:101950000B6864F31F434C6900EBC404C4F84432C1
:10196000CB69012B16D1D0F80C321343C0F80C32DE
:101970000C884B6864F31F434C6900EBC404C4F843
:1019800040320C89CB6864F31F434C6900EBC404FC
:10199000C4F844328B69002BD0F804320ED01343C4
:1019A000C0F804320B69002BD0F8143208D013436E
:1019B000C0F81432096A012904D008E09343EFE724
:1019C0009343F5E7D0F81C121143C0F81C12D0F86D
:1019D000001221F00101C0F80012002010BD00002B
:1019E00000640040704730B590F82040012C07D0CB
:1019F00090F82040022C03D0416A41F4802109E094
:101A000011B1012909D00CE00468E46807E0416ADB
:101A100041F400114162012030BD04682469A4072B
:101A2000F5D04FF4D874056804EB01142D5915F066
:101A30000405956005682D5942D0ED08556005688C
:101A40002C59C4F34004D4604FF4DA74056804EBF5
:101A500001142D5905F00F05156105682D59C5F3C1
:101A60000725956105682C59240C54614FF4DC72EC
:101A7000046802EB0112A4581C700468A458240ADC
:101A80005C700468A458240C9C700468A258120E60
:101A9000DA704FF4DE72046802EB0112A4581C7174
:101AA0000468A458240A5C710468A458240C9C712E
:101AB0000468A258120EDA7129B1012909D00DE08B
:101AC0006D0D1560BBE70068C16841F02001C16081
:101AD00004E00068016941F020010161002030BD8F
:101AE0002DE9F05F0546006800244669D0F80490AF
:101AF0008768D0F80CB0D0F810A0D0F81880F107A3
:101B000048D0F90714D001218160B80703D52846D1
:101B100000F0FFFA0CE0780702D54FF4006407E00C
:101B2000380702D54FF4805402E0284600F0F0FA5E
:101B3000F80516D529684FF480708860B80503D57C
:101B4000284600F0E8FA0CE0780502D544F4005489
:101B500007E0380502D544F4804402E0284600F04E
:101B6000D9FAF80316D529684FF480308860B80395
:101B700003D5284600F0D1FA0CE0780302D544F4EE
:101B8000004407E0380302D544F4803402E02846DC
:101B900000F0C2FA300707D55FEACB6004D52968A8
:101BA000102044F40074C86070074FF0080707D590
:101BB0005FEA0B7004D52868C760284600F0AAF9D0
:101BC000B00706D52868C068800702D0284600F014
:101BD000A3F9700607D55FEACA6004D5296810200A
:101BE00044F480640861B00607D55FEA0A7004D542
:101BF00028680761284600F05BFAF00606D52868D9
:101C00000069800702D0284600F053FAB00308D5D7
:101C10005FEAC96005D5296810204860284600F0B1
:101C200049FAF00307D55FEA097004D528684760D0
:101C3000284600F073FA300446D55FEA497040D573
:101C4000F00504D55FEAC87001D044F00104B00586
:101C500004D55FEA887001D544F00204700504D50C
:101C60005FEA487001D544F00404300529D518F026
:101C7000700F26D008F07000402815D006DC102820
:101C800009D020280AD0302816D10AE050280ED0DA
:101C9000602811D10EE044F008040DE044F0100477
:101CA0000AE044F0200407E044F0400404E044F07B
:101CB000800401E044F480742868816921F0700197
:101CC0008161296804204860002C05D0686A20439F
:101CD00068622846FFF786FEBDE8F09F70B50400F5
:101CE00003D094F8200010B104E0012070BD20461C
:101CF00000F082F82068016821F00201016000F024
:101D000003FD0546052604E000F0FEFC401B0A2802
:101D100011D8206840688007F6D42068016841F037
:101D20000101016000F0F0FC05460BE000F0ECFC66
:101D3000401B0A2806D9606A40F40030606284F8CB
:101D40002060D2E720684068C007EFD0207E0128DD
:101D5000206801683DD021F080010160607E01288B
:101D60002068016838D021F040010160A07E012880
:101D70002068016833D021F020010160E07E012855
:101D8000206801682ED041F010010160207F0128F9
:101D90002068016829D021F008010160607F0128D6
:101DA0002068016824D021F004010160D4E9020117
:101DB0000843D4E90412114308436168491E0843EB
:101DC0002168C86100206062012084F820000020A2
:101DD00070BD41F08001C0E741F04001C5E741F02E
:101DE0002001CAE721F01001CFE741F00801D4E754
:101DF00041F00401D9E70000F0B587B00446142192
:101E00006846FEF797FA3E4B3E48DFF8F0E0196867
:101E1000D4F800C03B4A03250226092710300024CD
:101E2000491CF4452AD11960012907D1016841F004
:101E300000710160006800F000700590106840F0CB
:101E4000080010601068CDE9005600F00800CDE9E8
:101E5000047069462C48CDE9024500F065FB00227C
:101E60000521132000F0DAFC132000F0CBFC002247
:101E70000521142000F0D2FC14203BE0DFF88CE0B8
:101E8000F44539D1D0F800C04CF0806CC0F800C0E7
:101E9000D0F800C001290CF0806CCDF814C0196096
:101EA00007D1016841F000710160006800F0007026
:101EB0000590106840F002001060106802AB00F05E
:101EC000020005904FF44050CDE9000683E8B000D1
:101ED00069460F4800F028FB002206213F2000F051
:101EE0009DFC3F2000F08EFC00220621402000F0E7
:101EF00095FC402000F086FC07B0F0BD0064004077
:101F00000000002030380240000C02400068004011
:101F100000040240704700002DE9F04107460168C7
:101F20005A485D4D5A4E5B4C94B005F1040881420D
:101F300062D110AB6A4600215848FFF754FD009863
:101F4000A0F5007105390AD1BDF8400040BA3080D3
:101F5000BDF8420040BAB081A069401CA061009861
:101F6000A0F50071063906D1BDF8400040BA3087AF
:101F70006069401C60610098A0F5007107390DD1BF
:101F8000BDF8400041BA46484184BDF8421049BA04
:101F90008184FFF785F9E069401CE0610098A0F5B5
:101FA0008061023928D19DF84000287039499DF898
:101FB000410068700C39288808809DF8420028701C
:101FC0009DF843006870288848809DF8442088F870
:101FD00000209DF8452088F801209DF8462088F8CB
:101FE00002209DF8472088F8032098ED000A81ED33
:101FF000010A606A401C60622A493868884242D1FE
:102000000EAB07AA00212848FFF7EDFC0798A0F5C2
:102010008061013937D19DF8380028701D499DF83D
:10202000390068701839288808809DF83A002870AF
:102030009DF83B006870B5F900204A809DF83C305F
:1020400088F800309DF83D3088F801309DF83E302A
:1020500088F802309DF83F3088F8033098ED000A88
:10206000504281ED010A00EE100ADFED100AB8EED1
:10207000C00A20EE200ABDEEC00A10EE100AF08160
:10208000206A401C206214B0BDE8F081006400406A
:10209000700A0020080900202400002024020020EB
:1020A000980B0020006800404C02002000007A3DA0
:1020B000704770477047000070B5044690F82000E4
:1020C000012804D0606A40F40020606218E0022019
:1020D00084F820002068016821F00101016000F00F
:1020E00013FB05460EE000BF00F00EFB401B0A2864
:1020F00008D9606A40F400306062052084F820004E
:10210000012070BD20684068C007EDD1606270BDDD
:1021100070477047704770477047704770472DE9A8
:10212000F0410446876D00F0EFFA064694F835005A
:102130000025022806D08020606584F834500120F4
:10214000BDE8F0812068016821F016010160206877
:10215000416921F080014161206C08B9A06C20B177
:102160002068016821F0080101602068016821F001
:10217000010101600BE000F0C7FA801B052806D9B9
:102180002020606504F8345F03206070D8E7206881
:102190000068C007EFD194F85C103F208840B86019
:1021A00004F8345F012060700020C9E790F8351012
:1021B000022903D08021416501207047052180F864
:1021C00035100068016821F00101016000207047AE
:1021D0002DE9F84304464FF00009CDF8009063481C
:1021E0004FF41651A56D0068B0FBF1F72E6894F816
:1021F0005C10082000FA01F131420FD021680A6812
:1022000052070BD50A6822F004020A6094F85C10A9
:102210008840A860606D40F00100606594F85C1033
:102220004FF0010808FA01F0304208D021684969EE
:10223000090604D5A860606D40F00200606594F85E
:102240005C1004208840304208D021680968890762
:1022500004D5A860606D40F00400606594F85C10DF
:1022600010208840304218D021680968090714D529
:10227000A86020680168490304D50068000308D5F8
:10228000A16C07E00168C90503D4016821F00801C9
:102290000160216C09B12046884794F85C10202029
:1022A0008840304231D021680968C9062DD5A86020
:1022B00094F8350005282068016806D0490347D501
:1022C000006800031DD4616C1CE021F01601016060
:1022D0002068416921F080014161206C08B9A06C3F
:1022E00020B12068016821F00801016094F85C10B9
:1022F0003F208840A86084F8349084F83580216DB0
:102300001FE0E16B09B120468847606D00282BD0A3
:10231000606DC00714D0052084F83500206801687E
:1023200021F0010101600098401C0090B84203D8E0
:1023300020680068C007F6D184F8349084F83580AE
:10234000E16C002910D001B02046BDE8F0430847F9
:102350000168C905D5D4016821F01001016084F835
:10236000349084F83580CCE7BDE8F8832000002065
:102370002DE9F041044600F0C7F906465CB100259E
:1023800084F83450022084F835002068016821F078
:10239000010101600DE00120BDE8F08100F0B4F919
:1023A000801B052805D920206065032084F83500AE
:1023B000F2E720680068C007F0D122681168204861
:1023C0000140D4E901031843D4E9033633431843E9
:1023D00063691843A3691843E3691843236A1843E0
:1023E0000843616A042903D1D4E90B131943084354
:1023F000106020684069666A20F0070130460E438D
:10240000012704280CD1A06A0643E06A40B12046A7
:10241000FEF7C8FE20B14020606584F83570BAE749
:10242000206846612046FEF7A9FE94F85C203F2113
:1024300091408160656584F835700020ACE700004C
:102440003F8010F070B5044690F834000025012854
:102450000CD0012084F8340094F835600020012E5F
:1024600006D084F834000225284670BD022070BDD5
:10247000022684F8356060652046FEF7BDFE2068C0
:10248000016841F001010160EEE72DE9F0410446E9
:10249000866D90F83400002501280DD0012084F8C5
:1024A000340094F835700020012F07D084F83400F0
:1024B00002252846BDE8F0810220FBE7022784F8C8
:1024C000357060652046FEF797FE94F85C103F205B
:1024D0008840B0602068016841F016010160206802
:1024E000416941F080014161206C20B120680168A0
:1024F00041F0080101602068016841F001010160BC
:10250000D7E7000070B5044600F0FEF80546601CF1
:1025100002D004480078044400F0F6F8401BA042C2
:10252000FAD370BD9C0100202DE9F84FDFF890B17F
:1025300000224FF001084FF0030A4FF00F090BF192
:10254000040E00BF0B6808FA02F42340A3426ED1C8
:102550004D68022D01D0122D0ED1D50800EB850C4F
:10256000DCF820505607F70E09FA07F6B5430E6956
:10257000BE402E43CCF82060066855000F790AFA59
:1025800005FC07F0030726EA0C06AF403743076057
:102590004E68012E05D0022E03D0112E01D0122E2E
:1025A0000ED18768CE6827EA0C07AE403E438660AE
:1025B0004668A6430C79C4F3001494403443446045
:1025C000C4688E6824EA0C04AE402643C6604C689A
:1025D000E4006FD53B4C256845F4804525602468B0
:1025E00022F0030504F480440094374C2E19D6F8E9
:1025F000084895072F0F09FA07F5AC43334DA84259
:1026000001D100252EE0324DA84201D1012529E05B
:10261000304DA84201D1022524E02F4DA84201D11E
:1026200003251FE02D4DA84202D104251AE041E008
:102630002B4DA84201D1052514E02A4DA84201D115
:1026400006250FE0284DA84201D107250AE0274DB5
:10265000A84201D1082505E0254DA84201D1092550
:1026600000E00A25BD402543C6F80858DBF80040C5
:102670005D464E689C43F60300D51C432C60DEF893
:10268000004075464E689C43B60300D51C432C6041
:102690000B4D08352C684E689C43F60200D51C4350
:1026A0002C60074D0C352C684E689C43B60200D553
:1026B0001C432C60521C102AFFF444AFBDE8F88F75
:1026C000003C01404438024000300140000002401C
:1026D0000004024000080240000C024000100240CA
:1026E0000014024000180240001C0240002002407A
:1026F0000024024042694A40426170470AB1816148
:1027000070470904FBE7000001488068704700003B
:102710009C01002002488168027811448160704762
:102720009C0100200B4810B5016841F40071016064
:10273000016841F480610160016841F480710160C9
:10274000032000F08BF8002000F006F800F03EF8BF
:10275000002010BD003C024010B5014688B00022A8
:10276000362000F05BF8362000F04CF813480024C7
:10277000016841F010010160006805A900F0100037
:102780000690684600F066FA00F084FA0C494000B2
:10279000B0FBF1F10C480B4A491E026040F2E732EF
:1027A000C0E90324C0E9011401F083FA10B101204B
:1027B00008B010BD044801F098FAF9E7403802402B
:1027C00040420F0000100040B40800200C4882B0C6
:1027D000016841F480410160006800F4804000908D
:1027E0000748001F016841F0805101600068002225
:1027F00000F0805000900F21901E02B000F00EB843
:102800004438024000F01F0201219140400980003D
:1028100000F1E020C0F8001170470000F0B40E4B4A
:102820001B680C46C3F30223C3F10705042D00D92E
:102830000425191D072901D2002300E0DB1E012613
:1028400006FA05F1491E214099409E40761E164029
:102850003143F0BC03F004B90CED00E0064900F090
:10286000070208684FF6FF03184040EA0220034AB7
:1028700010430860704700000CED00E00000FA050E
:102880002DE9F8431748016841F080510160006864
:10289000154F00F08050012600903E64FFF734FF92
:1028A00005464FF47A78114C05E000BFFFF72CFF86
:1028B000401B40450DD86068C003F7D57E64FFF724
:1028C00023FF0546464607E0FFF71EFF401BB042C8
:1028D00002D90320BDE8F88360688003F4D50020A6
:1028E000F8E700004038024000000E42007000404F
:1028F0002DE9F84F04460068DFF804A2814F824DAD
:10290000C1074FF001084FF0000601D180073CD508
:10291000CAF86860FFF7F8FE814605E0FFF7F4FEAD
:10292000A0EB0900022878D828680001F6D42078A6
:10293000C107764805D06168227A890141EA0271AF
:1029400001602178890711D501686268237B9201B3
:10295000C1F3027142EA036242EA01710160386820
:10296000E16920F01F00491E08433860CAF86880FA
:10297000FFF7CAFE814605E0FFF7C6FEA0EB09009F
:1029800002284AD828680001F6D52068410701D4FA
:1029900000074CD5CAF87060FFF7B6FE814605E027
:1029A000FFF7B2FEA0EB0900022836D82868C04322
:1029B0008000F5D520784107554814D50168226973
:1029C000237D9201C1F3027142EA036242EA01717E
:1029D00001603968226A6FF0FF0321F4F85103EBBC
:1029E0000222114339602178090710D50168226954
:1029F000C1F30361920142EA0161227E41EA027160
:102A000001603868616A20F4403008433860CAF8D1
:102A10007080FFF779FE074605E048E0FFF774FE97
:102A2000C01B022843D82868C0438000F6D4207811
:102A3000800653D534484030016841F08051016030
:102A40000068344D00F080500090286840F4807099
:102A50002860FFF759FE074605E000BFFFF754FE68
:102A6000C01B022823D82868C005F7D5274D143D80
:102A7000286810F4407020D0218D01F4407181420B
:102A80001BD02868244920F44070C1F800800E60F3
:102A900028602868C00710D0FFF736FE064641F2CE
:102AA000883707E0FFF730FE801BB84202D90320C9
:102AB000BDE8F88F28688007F4D5A16A1248C1F3F1
:102AC00001220830032A13D0016821F4F8110160B3
:102AD0002868218DC1F30B01084328602078C006C7
:102AE00004D50E4994F82C00C1F8E0010020DFE77E
:102AF00002680B4B22F4F81219400A430260E7E720
:102B0000000047428C3802400038024084380240BE
:102B10008838024000700040400E47420010474293
:102B2000FFFCFF0F2DE9F0470E46050065D0DFF8EA
:102B30001481D8F80000F7B200F00F00B04207D2BD
:102B400088F80070D8F8000000F00F00B04254D1AF
:102B500028683D4C810712D5400703D5206840F412
:102B6000E05020602878000703D5206840F46040DA
:102B700020602068A96820F0F000084320602878D1
:102B8000C0072DD0304968680839012812D00228C2
:102B900013D0032811D00968890700292DDA21688C
:102BA00021F0030101432160FFF7AEFD814641F2B0
:102BB000883A0EE009688903EFE709688901ECE7C4
:102BC000FFF7A2FDA0EB0901514502D90320BDE8A2
:102BD000F0872068696800F00C00B0EB810FEFD13E
:102BE000D8F80010404601F00F01B14207D9077034
:102BF000006800F00F00B04201D00120E7E728781C
:102C0000400705D52068E96820F4E05008432060BB
:102C10002878000706D52068296920F4604040EA3A
:102C2000C100206000F056F82168084AC1F3031182
:102C3000515CC840064908600020FFF78DFD002068
:102C4000C5E70000003C024008380240D4AE00084E
:102C5000200000200F2202600C4A136803F00303D7
:102C60004360136803F0F0038360136803F4E053D8
:102C7000C36012684FF4E05303EAD20202610448D1
:102C8000006800F00F00086070470000083802403C
:102C9000003C02400448054900680968044AC1F341
:102CA0008221515CC8407047200000200838024053
:102CB000E4AE00080448054900680968044AC1F305
:102CC0004231515CC8407047200000200838024063
:102CD000E4AE0008154810B5006810F00C02144866
:102CE00013D01449042A0FD0082A0ED10F4C241FE8
:102CF0002268236802F03F025B0207D52068C0F318
:102D00008810A0FB010106E0084610BD2168C1F350
:102D10008811A1FB00010023FDF7C2FA2168C1F36D
:102D20000141491C4900B0FBF1F010BD08380240D8
:102D30000024F400001BB7002DE9F84F050076D001
:102D40002878DFF8F8B2BE4CC00749D0DBF8001095
:102D50005846C1F38101012908D00068C0F3810001
:102D600002280AD1201D0068400206D52068800391
:102D700036D568680028E2D032E06868B0F5803F58
:102D800010D0B0F5A02F206810D020F48030206043
:102D9000206820F4802020606868A0B1FFF7B4FCB0
:102DA00006460CE0206840F48030F4E740F48020D0
:102DB0002060F7E7FFF7A8FC801B642873D8206821
:102DC0008003F7D50CE0FFF79FFC064605E000BF47
:102DD000FFF79AFC801B6428F0D820688003F7D4A2
:102DE0002878DFF8608280074FF000093ED5DBF8D5
:102DF0000010584611F00C0F09D00068C0F3810094
:102E000002280BD18D48001F0068400206D42068BC
:102E1000800715D5E868012809D111E0E868B8B144
:102E20000120C8F80000FFF76FFC064605E002E14C
:102E3000FFF76AFC801B0228C0D820688007F7D5FE
:102E40002068296920F0F80040EAC10020600DE008
:102E5000C8F80090FFF758FC064604E0FFF754FC62
:102E6000801B02281FD820688007F7D42878000725
:102E700022D5724E744869696C3671B101210160C6
:102E8000FFF742FC074604E0FFF73EFCC01B0228A8
:102E900009D830688007F7D50EE0C0F80090FFF73A
:102EA00033FC074605E083E0FFF72EFCC01B022839
:102EB0007ED830688007F7D42878400768D5DFF8D7
:102EC0007CA100270AF1380ADAF80000C0000BD410
:102ED000DAF8001041F08051CAF80010DAF800006A
:102EE000012700F080500090584E3068C00510D483
:102EF000306840F480703060FFF706FC009005E019
:102F0000FFF702FC0099401A022851D83068C0052A
:102F1000F6D54A4EA868683601280FD005283068D3
:102F200010D020F001003060306820F004003060E4
:102F3000A868B8B1FFF7E8FB00900FE0306840F0F8
:102F40000100F4E740F004003060F7E7FFF7DCFB36
:102F50000099411A41F28830814264D83068800774
:102F6000F4D50EE0FFF7D0FB009007E0FFF7CCFBB5
:102F70000099411A41F28830814254D83068800764
:102F8000F4D42FB1DAF8001021F08051CAF8001003
:102F9000A869C0B3DBF80010C1F3810102294AD04F
:102FA0000228484607D0C8F86000FFF7ADFB00E0F4
:102FB00039E005463AE04746C8F86000FFF7A4FB51
:102FC000064604E0FFF7A0FB801B02282BD82068F0
:102FD0008001F7D4D5E907010843A96A1C4A4908CA
:102FE00002EB01416A6A41EA8211084395F82C100C
:102FF00040EA01611148001F016001203866FFF7B7
:1030000083FB054605E014E0FFF77EFB401B02282A
:1030100009D820688001F7D50BE000BFFFF774FBEB
:10302000401B022802D90320BDE8F88F20688001E8
:10303000F4D40020F8E70120F6E700000838024049
:103040000038024000004742800E474200700040B6
:103050000000FFFF2DE9F74F0446007F934601284B
:103060001BD04FF0010884F81C8002206077216893
:10307000CA204862206853214162206880684FF06E
:10308000000540054FF0FF064FF0030A4FF47A7930
:103090000FD5FFF739FB074607E00220BDE8FE8F9A
:1030A000FFF732FBC01B484511D82068C0684007B5
:1030B000F6D42068816821F480618160FFF724FBE9
:1030C00007460BE0FFF720FBC01B484506D92068E8
:1030D000466284F81DA025770320DFE72068C068DA
:1030E0004007EFD52068816821F0070181602068E2
:1030F000816841EA0B01816021680198486120687C
:10310000816841F4806181602068466284F81D8096
:1031100025770020C2E7000070B5040002D0607F70
:1031200010B106E0012070BD00202077204600F09D
:1031300049F8022060772168CA204862216853203C
:103140004862204602F0DCFEFF25042618BB2068FA
:1031500081681B4A11408160216888686268104359
:10316000D4E904231A43104388602168E0680861A9
:1031700020680169228941EA024101612068C16831
:1031800021F08001C16020688068800607D4204655
:1031900000F000F918B1206845626677C2E7206840
:1031A000016C21F4802101642068016CA269114343
:1031B00001642068456201206077002070BD000036
:1031C000BFFF8FFF00680349884202D102490120F6
:1031D00008607047002800403C0E47422DE9F04748
:1031E0000446007F0B4601281FD04FF0010984F8E8
:1031F0001C9002206077DAB19878D97840EA0145CE
:1032000058781978000240EA413005432168CA2005
:103210004862216853204862204602F071FE002671
:10322000FF274FF0040860BB1AE00220BDE8F087DA
:103230005878C10603D500F0EF000A305870D878EE
:1032400002F053FE0204587802F04FFE42EA0022D8
:10325000987802F04AFE0243187842EA4035D5E7F2
:103260000F480540206845602068C16821F0800152
:10327000C1602068806880060AD4204600F08AF881
:1032800030B12068476284F81D8026770120CDE7A1
:103290002068476284F81D9026770020C6E700006A
:1032A0003FFFFF002DE9F0470446007F0D4601284F
:1032B00011D04FF0010A84F81CA00220607720682A
:1032C000002680684FEA406042B100281ADA287868
:1032D00002F002FE17E00220BDE8F087002800DBC4
:1032E000EE70287802F001FE0204687802F0FDFD1D
:1032F00042EA0022A87802F0F8FD0243E87842EAA8
:1033000000470AE0EE70A878297840EA014768781B
:10331000E978000240EA014007432168CA20486278
:10332000216853204862204602F0EAFD4FF0FF0872
:103330004FF00409E0B9164807402068076020688C
:10334000816821F480218160D5E903010843216867
:103350008A68104388602068C16821F08001C160DC
:103360002068806880060BD4204600F013F838B13E
:103370002168C1F8248084F81D9026770120ABE7EE
:103380002168C1F8248084F81DA026770020A3E7D7
:103390007F7F7F0070B504460068C16821F0A001FE
:1033A000C160FFF7B1F905464FF47A7607E000BF38
:1033B000FFF7AAF9401BB04201D9032070BD206875
:1033C000C0688006F4D5002070BD7047FEB5044685
:1033D00003200D4684F83400606C032820D0B5F536
:1033E000805F1DD0B5F5006F05D045B1A06B40F0F2
:1033F0000060A06309E0204603F00FFA02E02046D7
:1034000003F0E4F9A16B0143A163A06B012658B15D
:10341000216840F2FF50886384F834600120FEBDCB
:10342000A06B40F08050E4E7211DD4E905700EC97F
:103430000095CDE90170206802F0A2FD84F83460A7
:103440000020FEBD7047F0B5426E120E93090B705E
:10345000C2F383034B7002F003028A70426E120CB7
:10346000CA70B0F86420120A0A7190F864204A7198
:10347000826E4FF6FF73120E03EA0212CA80826E4A
:10348000CB88C2F3074243EA1213CB8002F00F024B
:103490000A72B0F86820C2F30722D3094B72C2F354
:1034A00080138B72C2F34013CB72C2F300130B7301
:1034B00000264E73446C4FF4007701236CB1012C4D
:1034C00043D0026840F2FF519163816B41F080511B
:1034D000816380F834300120F0BD9207120D0A613B
:1034E00090F868200C6944EA82020A61C26E0C6995
:1034F000120E44EA92140C61C2F3C2040C7502F07D
:1035000007024A75C26EC2F3074254098C75C2F3B2
:103510008204CC759207520F0A76B0F86C20C2F381
:1035200007240A7E42EAD4120A760A69521C4265CE
:103530000D7EAD1CAA4042650D7A03FA05F585653E
:103540006D0A6A43C0E917271CE090F868209206CC
:10355000920A0A61C26E0C69120E44EA02220A61E2
:10356000C26E0C69C2F3074214430C61B0F86C20C0
:10357000C2F307240A69521C4FEA82224265C0E95D
:1035800016720766C4F3801201F8192F4FEA84629D
:103590004FEA52624A7010F86C2F4C7844EAD21409
:1035A0004C7002F07F028A7042684FEA12624FEA62
:1035B000D214CC70C2F341140C71C2F382044C716A
:1035C0004FEA82724FEA12728A7142688C79C2F3B2
:1035D000074244EA92148C71C2F34014CC710E720B
:1035E00002F001024A728288C2F307224FEAD21423
:1035F0008C72C2F38014CC72C2F340140C73C2F309
:1036000000144C73C2F381048C7302F00302CA737A
:1036100000794FEA500008744B744FF00000F0BD81
:1036200070B50446B0F8500000250104206802F08F
:10363000F4FD18B1A16B0143A16304E000212068EF
:1036400002F091FC0546C5F3432070BD70B50446F9
:103650000068416B4FF00105CA0540F23A3149D587
:103660002A0282632068C26B8A43C263206B000710
:10367000206B22D5800702D4206B800609D52068F4
:1036800002F0FCFD28B1A16B0143A1632046FFF7C6
:10369000D9FE216840F2FF50886384F83450206BD3
:1036A000C00702D1206B800703D5204600F046F901
:1036B00070BD204600F043F970BD0006FCD5206BBC
:1036C000800609D5206802F0D9FD28B1A16B01431D
:1036D000A1632046FFF7B6FE206BC007ECD1206B3C
:1036E0008007E9D42068C16A21F00801C16284F82A
:1036F0003450DEE7426B520410D54FF480418163B1
:10370000266A002506EB8501206802F062FC6D1C2C
:10371000082DF7D3206A2030206270BD426B12045E
:1037200010D54FF400418163A66A0025206802F09D
:103730003DFC46F825006D1C082DF7D3A06A20300B
:10374000A06270BD426B40F23A231A42F9D0426B3C
:10375000920703D5A26B42F00202A263426B1207EA
:1037600003D5A26B42F00802A263426B920603D516
:10377000A26B42F02002A263426BD20603D5A26B79
:1037800042F01002A263426B920503D5A26B42F095
:103790000802A26340F2FF7282632068C26B8A4310
:1037A000C263206B000623D5206C58B11549016512
:1037B000206CFEF7FBFC0028C3D0206CBDE87040F5
:1037C00002F0B2BEE06B58B10F490165E06BFEF745
:1037D000EDFC0028B5D0E06BBDE8704002F080BE83
:1037E0000020A06384F834502046FFF7EEFD70BD42
:1037F000206B0007FBD584F834502046FFF722FEEB
:1038000070BD000029650008E164000870B504007F
:1038100004D094F83400002510B105E0012070BDFB
:103820002577204600F038F8032084F8340020463D
:1038300000F008F8A5632563012084F83400002017
:1038400070BD0000FEB50025044676200095CDE948
:1038500001502B462A462946206802F091FB0D4E66
:1038600046F8A05F206802F09DFB0125356002202C
:10387000FEF748FE204602F058FF20B9204602F02D
:10388000E1FE002805D084F83450A16B0143A16308
:103890000120FEBD00802542F0B587B0044614210A
:1038A0006846FCF747FD2149206888423BD1204803
:1038B0000024016841F400610160006800F40060C8
:1038C00005901B481438016841F00401016001684B
:1038D00001F004010591016841F0080101600068F0
:1038E000022500F0080005904FF4F850CDE90005DE
:1038F00002AA03260C2782E8D00069460D48FEF78D
:1039000013FE0420CDE9000502AA694682E8D00032
:103910000948FEF709FE002205213120FEF77EFF4F
:103920003120FEF76FFF07B0F0BD0000002C014012
:103930004438024000080240000C024070477047C3
:1039400070B5040005D00025A56294F8510010B1AF
:1039500006E0012070BD84F85050204600F030F899
:10396000022084F851002068016821F040010160C4
:10397000D4E901010843D4E9031211430843616902
:103980000843218B01F400710843E1690843216A6F
:103990000843A16A084321680860A069042101EA7C
:1039A0001040616A0843216848602068C16921F4B9
:1039B0000061C1616565012084F85100002070BD7F
:1039C00010B586B0044614216846FCF7B3FC1449D0
:1039D0002068884221D113480021026842F48012F5
:1039E0000260006800F4801005900E4814380268E8
:1039F00042F020020260006800F0200005904FF4C1
:103A0000607000900220CDE90101032003900520A1
:103A1000049069460448FEF787FD06B010BD00001B
:103A20000050014044380240001402402DE9F84F94
:103A3000044690F8500000260A9F9A4693460D4689
:103A40004FF0010801280ED0012084F85000FEF745
:103A50005BFE814694F85100616801280CD0B1F5F5
:103A6000827F07D102E00220BDE8F88FA16809B982
:103A7000042801D00226BDE055B1BBF1000F07D0EC
:103A8000BAF1000F04D094F85100012802D004E0EC
:103A90000126AFE0052084F8510000206065C4F8DD
:103AA00038B0A4F83EA0A4F83CA02563A4F836A042
:103AB000A4F834A02064606420680168490603D437
:103AC000016841F040010160E068B0F5006F606896
:103AD00004D0E8B3E08E01283BD06AE010B1E08E5C
:103AE00001282ED1216835F8020BC860E08E401EF7
:103AF000E08626E0B8F1000F0DD0E08E58B12068C6
:103B00008168890707D535F8021BC160E08E401E29
:103B1000E0864FF00008E08F58B120688168C9073F
:103B200007D0C0682BF8020BE08F401EE0874FF0F3
:103B30000108781C05D0FEF7E7FDA0EB0900B842AC
:103B400046D2E08E0028D5D1E08F0028D2D136E0D1
:103B5000FFE7216815F8010B0873E08E401EE08630
:103B600027E000BFB8F1000F0DD0E08E58B12068FB
:103B70008168890707D515F8011B0173E08E401E87
:103B8000E0864FF00008E08F58B120688168C907CF
:103B900007D0C0680BF8010BE08F401EE0874FF0A4
:103BA0000108781C05D0FEF7AFFDA0EB0900B84274
:103BB0000ED2E08E0028D5D1E08F0028D2D13B462E
:103BC000012202212046CDF8009002F05DFE08B1EE
:103BD00003260FE04A463946204602F045FE18B15A
:103BE00001262020606505E0A06818B92068C1683A
:103BF00080680090012084F85100002084F8500073
:103C0000304631E77047704710B590F83820012AE8
:103C100025D0012280F83820CA688C6822F44072CE
:103C200022434C6822F4806222430C6822F4006232
:103C300022430C6922F4805222434C6922F4005240
:103C400022438C6922F48042224322F4004102681C
:103C500000232143516480F83830002010BD022039
:103C600010BD30B590F83820012A20D0012280F80C
:103C70003820022380F8393003685C6824F070042F
:103C80005C6003685C680D682C435C6003689C683A
:103C900024F080049C6003689C6849680C439C6025
:103CA00080F83920002180F83810084630BD022005
:103CB00030BD10B5040003D094F8390010B107E00E
:103CC000012010BD002084F83800204600F00CF8D8
:103CD000022084F83900211D206803F0CFF901206B
:103CE00084F83900002010BD70470168CA6842F0AE
:103CF0000102CA600068016841F001010160002012
:103D00007047704770B50446006801694FF00005C0
:103D1000C943890715D4C168C943890711D4E91E6D
:103D2000016101202076206880698007204602D04A
:103D3000FFF7E7FF04E000F071F9204600F050FAC9
:103D4000257620680169C943490717D4C168C9436A
:103D5000490713D46FF00401016102202076206826
:103D6000806910F4407F204602D0FFF7CAFF04E0CC
:103D700000F054F9204600F033FA257620680169F6
:103D8000C943090716D4C168C943090712D46FF0A3
:103D900008010161042020762068C0698007204660
:103DA00002D0FFF7AEFF04E000F038F9204600F043
:103DB00017FA257620680169C943C90617D4C16876
:103DC000C943C90613D46FF01001016108202076A1
:103DD0002068C06910F4407F204602D0FFF791FFB1
:103DE00004E000F01BF9204600F0FAF9257620687F
:103DF0000169C943C90708D1C168C943C90704D1CA
:103E0000891E0161204600F009FA20680169C94352
:103E1000090609D4C168C943090605D46FF08001B9
:103E200001612046FFF7EEFE20680169C94349069B
:103E300009D4C168C943490605D46FF04001016146
:103E4000204600F0F5F920680169C94389060BD4C2
:103E5000C168C943890607D46FF02001016120467B
:103E6000BDE87040FFF7CFBE70BD0000F0B587B071
:103E7000044614216846FCF75DFA5B4B2268002477
:103E80005A49022501265A489A4221D10A6842F02D
:103E900001020A600A6802F0010205920A6842F013
:103EA00010020A60096801F0100105914FF4407199
:103EB0000091CDE90154CDE903466946FEF734FB94
:103EC0004FF4C0400090CDE901546946494821E0D3
:103ED000B2F1804F11D04848824221D1086840F0A9
:103EE000020008600868694600F002000590302072
:103EF0000090CDE90154414849E00A6842F00102CE
:103F00000A60096801F0010105910F210091CDE9D6
:103F100001546946CDE90346FEF706FB07B0F0BD44
:103F2000374882420FD1086840F0080008600868EE
:103F3000694600F0080005904FF470400090CDE90C
:103F40000154304823E0304B3048314F9A4221D160
:103F50000A6842F480720A600A6802F4807205926C
:103F60000A6842F080020A6009680096CDE90154AF
:103F700001F08001CDE9045103946946FEF7D4FABB
:103F80004FF4E0500090CDE9015469463846CDE940
:103F90000345C1E71F4B9A4210D10A6842F4807270
:103FA0000A60096801F480710591E4210091CDE96E
:103FB00001540321CDE903416946ADE71648824229
:103FC000ACD1086840F0800008600868694600F0DD
:103FD000800005904FF410700090CDE90154092045
:103FE000CDE90340384697E70000014030380240F1
:103FF00000000240001002400004004000040240A3
:1040000000080040000C0240000C0040002002406C
:10401000001C02400004014000180040704770B5C9
:10402000044690F838000D4601280DD0012684F88A
:104030003860022084F8390042B1042A18D0082AD6
:104040002AD00C2A4DD139E0022070BD206803F03F
:1040500081F82068816941F00801816120688169E7
:1040600021F004018161206881692A69114311E00E
:10407000206803F09BF82068816941F40061816148
:104080002068816921F480618161206881692A69E1
:1040900041EA0221816124E0206803F0B9F8206838
:1040A000C16941F00801C1612068C16921F00401C2
:1040B000C1612068C1692A69114311E0206803F0D9
:1040C000D7F82068C16941F40061C1612068C16905
:1040D00021F48061C1612068C1692A6941EA022135
:1040E000C16184F83960002084F8380070BD10B5D3
:1040F000040003D094F8390010B107E0012010BD8E
:10410000002084F83800204600F00CF8022084F8E3
:104110003900211D206802F0B1FF012084F8390028
:10412000002010BD08B501682648274A814205D104
:10413000106840F001001060106812E02248001F73
:10414000B1F1804F08D0214B99420ED1016841F066
:1041500002010160006826E0016841F00101016090
:10416000006800F00100009008BD194B994207D18A
:10417000016841F004010160006800F00400F2E70A
:10418000144B994207D1016841F0080101600068B1
:1041900000F00800E7E7104B994207D1106840F0A3
:1041A00002001060106800F00200DCE70B4A914248
:1041B000DAD1016841F040010160006800F0400080
:1041C000D1E70000000001404438024000040040F4
:1041D00000080040000C00400004014000180040AE
:1041E0007047000010B504460068012202F0A6FFE7
:1041F00008492068884202D00749884203D1416CAF
:1042000041F4004141642068016841F0010101600E
:10421000002010BD00000140000401400068034977
:10422000884201D1FEF776BA7047000000100040C6
:10423000704710B504460068416994F83920C1F30D
:10424000C011212A0BD151B1416921F08001416196
:10425000206B08B1FDF763FF204603F0BDF820682E
:10426000416994F83A20C1F38011222A0BD151B14F
:10427000416921F040014161606B08B1FDF74FFFDA
:10428000204603F09BF8002010BD08B5C16B08293B
:1042900003D1006801684068009008BD70B50268ED
:1042A00004461068D168536910F00F0F51D003F025
:1042B000010501F4907635435DD0C20705D0CA05EB
:1042C00003D5E26B42F00102E263420705D5DA074B
:1042D00003D0E26B42F00202E263820705D5DA07FF
:1042E00003D0E26B42F00402E263020705D5DA076D
:1042F00003D0E26B42F00802E263E26B002A34D0A2
:10430000800604D5880602D5204603F06EF82068A2
:104310004069E16BC0F3801001F0080101432046C1
:1043200024D003F04BF82068416949061AD5416949
:1043300021F040014161606BA0B11B490165606BD8
:10434000FDF734FF002810D0606B016DBDE87040B0
:10435000084783060FD58B060DD52046BDE8704073
:1043600003F043B82046FFF790FF70BDFFF78DFFC5
:104370000020E06370BD030606D50B0604D5204679
:10438000BDE8704003F0CEB94006F3D54806F1D53C
:10439000D168204621F04001D160202184F83910F5
:1043A00000F06AFA70BD00001D73000870B50400CB
:1043B00004D094F83900002510B106E0012070BD4A
:1043C00084F83850204600F023F8242084F839007F
:1043D0002068C16821F40051C160204603F04CF808
:1043E0002068016921F4904101612068416921F050
:1043F0002A0141612068C16841F40051C160E56350
:10440000202084F8390084F83A00002070BD0000B4
:104410002DE9F04F87B0054614216846FBF78AFF67
:10442000B348DFF8C88214380221D5F800C0DFF89D
:10443000C0E2012203238F06002406154FF007096E
:10444000C44540D1DEF8008048F01008CEF8008066
:10445000DEF800C00CF0100CCDF814C0D0F800C08D
:104460004CF0020CC0F800C0006800F0020005909B
:10447000C0208DE80F0269469E48FEF755F8DFF828
:104480007C829D494046C8F80010C0E90174C0E92B
:104490000346C8F81440C8F81840C8F81C40C8F8CB
:1044A0002040C8F82440FDF763FF08B1FCF7D6FFB1
:1044B000C5F83480002205212520C8F83850FEF7C1
:1044C000ADF9252062E0DFF83882DFF824B24FF042
:1044D000400AABF1040BC4455DD1DBF80080002439
:1044E00048F40038CBF80080DBF800C00CF4003C46
:1044F000CDF814C0D0F800C04CF0080CC0F800C0D3
:10450000006800F00800059060208DE80F02694601
:104510007C48FEF709F8DFF8E4817B4908F1600880
:104520004046C8F80010C0E90174C0E90346C8F865
:104530001440C8F81840C8F81C40C8F82040C8F813
:104540002440FDF715FF08B1FCF788FF6B4C6E485F
:10455000C5F83480C0341830C8F8385084E8810475
:104560000020C4E903066061A061E061206260622E
:104570002046FDF7FDFE08B1FCF770FF2C6300221A
:1045800005212620A563FEF749F92620FEF73AF912
:1045900007B0BDE8F08FDFF87481C44552D1DBF875
:1045A000008048F48028CBF80080DBF800C00CF4D1
:1045B000802CCDF814C0D0F800C04CF0080CC0F826
:1045C00000C0006800F0080005904FF440708DE8CE
:1045D0000F0269464B48FDF7A7FF4B49DFF83091C2
:1045E00060394846C9F80010C0E90174C0E90346C3
:1045F000C9F81440C9F81840C9F81C40C9F820404F
:10460000B846C9F82440FDF7B3FE08B1FCF726FF11
:104610003F4FC5F834906037C9F83850C7E90346B2
:104620007C61BC613848FC613C6230387C6287E860
:1046300001053846FDF79CFE08B1FCF70FFF2F631C
:10464000BD63A5E7334FBC45A2D1DEF800C04CF0F6
:10465000200CCEF800C0DEF8007007F020070597A8
:10466000076847F040070760006800F040000590C9
:104670004FF484408DE80F000820049069462648D6
:10468000FDF752FF224F1C48C037183838604FF0F2
:104690002068C7E90184C7E903467C61BC61FC610D
:1046A0003C6238467C62FDF763FE08B1FCF7D6FE3B
:1046B0006F63BD63194F1048C7E903467C61BC6155
:1046C000FC613C6260307C6287E801053846FDF79A
:1046D0004FFE08B1FCF7C2FE2F63002205214720E0
:1046E000BD63FEF79BF8472050E700000010014033
:1046F0004438024000040240406402401406002096
:1047000000440040000C0240886002400048004025
:104710003407002000140140001802405408002013
:10472000F8B5044690F83A0020283CD1C1B3BAB39A
:1047300094F83800012836D0012084F83800A162AE
:10474000A2850025E563222084F83A00636B1748B0
:10475000D863636B16481864636B1648D864606B43
:10476000134605650846666B216802463046091DFA
:10477000FDF78BFE206801684168009184F838508D
:10478000C16841F48071C1602068416941F0010154
:1047900041612068416941F0400141610020F8BD5C
:1047A000FFE70120FBE70220F9E70000777300082C
:1047B000B37300082D73000890F83A30202B1DD1F8
:1047C000D1B1CAB190F83830012B17D081628285FF
:1047D000C2850021C163222280F83A2080F8381077
:1047E00001684A6942F001024A610068C16841F407
:1047F0009071C1600020704701207047022070470F
:1048000008B50068094988420FD109480078FCF7CB
:10481000BFFD08480068016840680090BDE8084096
:10482000012203490348FFF7C7BF08BD0044004009
:10483000A409002054050020704790F83930202B3F
:1048400018D1A9B1A2B190F83830012B12D0016271
:104850008284C2840021C163212280F8392080F83B
:1048600038100068C16841F08001C16000207047C5
:1048700001207047022070477047FEE77FB50E2287
:1048800069463B2000F052FBBDF80000334C40BAB3
:104890009FED331A2080BDF80200A4F1140140BA44
:1048A0006080BDF8040001F1280540BAA080BDF881
:1048B000060040BA00EE100AF8EE400A80EE810AC7
:1048C000F3EE050A30EE200ABDEEC00A10EE100A23
:1048D000E080BDF8080042BA0A81BDF80A0040BA7B
:1048E0004881BDF80C305BBA8B812989511A0AB214
:1048F00022816989401A01B26181A889181A00B21F
:10490000A081002A00DA52420023052A00DC23811C
:10491000002900DA4942052900DC6381002800DA19
:1049200040421E2800DCA38105F0CAFBB4F9080050
:10493000DFED0C0A00EE100A0B4AB8EEC00A20EEBA
:10494000200ABDEEC00A10EE101AA2F84410074962
:104950000880A089488005F0D3FB7FBD480A00206D
:104960005CEFA64300007A3D700A00203409002065
:1049700010B530216A2000F007FB0A20FDF7C2FDC8
:104980000D21242000F000FB0A20FDF7BBFD0E21C5
:10499000282000F0F9FA0A20FDF7B4FD8E2131201D
:1049A00000F0F2FA0A20FDF7ADFD01210B2000F026
:1049B00074F8002000F055F8102801D0012010BD37
:1049C0000A20FDF79FFD00210A2000F066F80A206A
:1049D00000F047F808B1022010BD0A20FDF792FD53
:1049E00000210B2000F059F80B2000F03AF808B134
:1049F000032010BD0A20FDF785FD2421412000F091
:104A00004CF8412000F02DF8242801D0042010BDDE
:104A10000A20FDF777FDC021422000F03EF8422039
:104A200000F01FF8C02801D0052010BD0A20FDF7B6
:104A300069FD00212A2000F0A7FA0A20FDF762FD97
:104A40000021342000F0A0FA0A20FDF75BFD0622C9
:104A500003210E2000F0C2FA6420FDF753FD002070
:104A600010BD10B50146322000F08EFA0A20FDF785
:104A700049FD8021342000F087FA0A20FDF742FD2D
:104A8000352000F02BFA04460021342000F07CFA97
:104A90000A20FDF737FD204610BD70B50D460446CF
:104AA00000212A2000F070FA0220FDF72BFD21469C
:104AB000292000F069FA0220FDF724FD2946642030
:104AC00000F062FA0220FDF71DFD81212A2000F08E
:104AD0005BFABDE870400A20FDF714BD70B59D4C2F
:104AE0002DED0C8BB8EE00BAB0EE008AB7EE009A4E
:104AF000D4ED029AD4ED038A29EE8B0A68EE880A77
:104B000020EE290A00EEE80A30EE090A10EE100A3B
:104B1000FBF794FD94ED010AD4ED000A41EC1A0B69
:104B200020EE080A60EE880A20EE290A00EEA80AA4
:104B300010EE100AFBF782FD41EC100BB0EE4A1AA2
:104B4000F0EE6A1A03F07CFA9FED83AB51EC100B88
:104B500053EC1A2BFBF7A0FCFBF79CFDA062D4EDF5
:104B6000018A28EE8B0A60EE280A94ED020A60EEB4
:104B700008BA4BEEC00A30EE890A10EE100AFBF7B5
:104B80005DFD94ED030AD4ED000A41EC190B2BEE08
:104B9000800A60EE880A00EEA80A10EE100AFBF701
:104BA0004DFD41EC100BB0EE491AF0EE691A03F01E
:104BB00047FA53EC1A2B51EC100BFBF76DFCFBF78B
:104BC00069FD08EE900A6648C4ED0D8AD4ED0ABA74
:104BD00094ED090A3BEEC00A10EE101A814202DD84
:104BE000E169491EE16110EE102A5E498A4202D94C
:104BF000E269521CE261C4ED09BA94ED0C0A38EE88
:104C0000C00A10EE102A824202DD206A401E206295
:104C100010EE100A884202D9206A401C2062C4EDBE
:104C20000C8A9FED519B206980BBE069FBF7BCFCBF
:104C300053EC192BFBF730FC41EC1C0B1BEE900ADC
:104C4000FBF7FCFC53EC1C2BFBF77FFBFBF722FD77
:104C5000E062206AFBF7A8FC53EC192BFBF71CFC65
:104C600041EC1C0B18EE900AFBF7E8FC53EC1C2BF4
:104C7000FBF76BFBFBF70EFDA063E06B40F2DC5132
:104C8000401CE063884201DD01202061A06BFBF73E
:104C9000D5FC41EC1C0B206AFBF786FC53EC192B6E
:104CA000FBF7FAFB41EC1D0B18EE900AFBF7C6FC74
:104CB00053EC1D2BFBF749FB53EC1C2BFBF7E6FBDE
:104CC000FBF7E8FC2A4DA86494ED010AD4ED030A31
:104CD00094ED021A20EE0B0A20EE200AD4ED000A11
:104CE00060EE880A00EE810A10EE100AFBF7A6FCBF
:104CF00041EC100B02F088FE53EC1A2B51EC100B18
:104D0000FBF7CAFBFBF7C6FC1A498860E06AFBF7B1
:104D100095FC41EC180BE069FBF746FC53EC192BB2
:104D2000FBF7BAFB41EC190BA06AFBF787FC53ECCD
:104D3000192BFBF70AFB53EC182BFBF7A7FBFBF730
:104D4000A9FC28610C48816A491C8162BDEC0C8B6E
:104D500070BD00002C0000206666666666A64C40AA
:104D60000000A5430000A5C30000000000807640BD
:104D7000700A00203409002008090020074A10B5F5
:104D800052F8213002F12C04C31A44F8213042F8C1
:104D9000210001D0012010BD002010BDD010002046
:104DA00010B51A4AD0ED010A92ED000A30EEC00AA1
:104DB00082ED010AC2ED000A9368CB1AC2E9021320
:104DC00020D0B0F90010002900DA4942142917DA7E
:104DD000B0F90200002800DA4042142810DA10EE80
:104DE000100AFBF72BFC41EC100B04F0AFF8FBF7BB
:104DF000DBFB9FED071B53EC112BFBF733FC03D8B8
:104E0000022010BD012010BD032010BD8001002034
:104E10009A9999999999A93F7FB514212848FBF748
:104E200089FA274814211430FBF784FA2448142106
:104E30002830FBF77FFA00F067FE012204212148A9
:104E4000FDF75CFC80216B2000F09EF86420FDF7EC
:104E500059FB0721682000F097F86420FDF752FB0A
:104E6000752000F03BF870280ED04FF4FA70FDF773
:104E700049FB752000F032F8702805D012A002F02E
:104E800099FD012004B070BD134B00246D460FCB7B
:104E90008DE80F0005EB4400417815F8140000F090
:104EA00073F80120FDF72EFB641CE4B2072CF1D34C
:104EB000FFF75EFD04F05CFB04F038FA0020E1E748
:104EC000340A002000100240696D75206F66666C20
:104ED000696E65210D0A0000ECAE0008F8B5104EB1
:104EE0000446002240213046FDF708FC44F08000D3
:104EF0000C4C3725A21CE0700123511C0A48009578
:104F0000FEF794FDA21C0123511C07480095FEF7F3
:104F10008DFD012240213046FDF7F0FBA078F8BD61
:104F200000140240A800002018030020F8B5134F19
:104F300015460E460446002240213846FDF7DEFBAA
:104F40000F4944F0800037244871891D8A1E08707B
:104F50000123491E0B480094FEF768FD08492B46C3
:104F60003246891D07480094FEF760FD012240216A
:104F70003846FDF7C3FB0020F8BD000000140240D6
:104F8000A800002018030020F8B5114F0E46044673
:104F9000002240213846FDF7B1FB04F07F000D4CA4
:104FA0003725224660700123511C0B480095FEF7FF
:104FB0003DFD667022460123511C07480095FEF70F
:104FC00035FD012240213846FDF798FB0020F8BD51
:104FD00000140240A80000201803002070B50E46FF
:104FE0000446014615462820FFF7CEFF0220FDF7B4
:104FF00089FA0A212920FFF7C7FF0220FDF782FA6C
:1050000001216420FFF7C0FF0220FDF77BFA44F086
:1050100080012520FFF7B8FF0220FDF773FA314623
:105020002620FFF7B1FF0220FDF76CFA03213420A0
:10503000FFF7AAFF0220FDF765FA03216720FFF7BB
:10504000A3FF0220FDF75EFA81212A20FFF79CFFD3
:105050000620FDF757FA45F080012720FFF794FF5F
:10506000BDE870400720FDF74DBA00000F4810B5AD
:105070000D4901600521416000214FF4003281603B
:10508000C0E9031252014261017601224276817623
:10509000C17601774177FCF721FE002803D0BDE8F7
:1050A0001040FCF7DBB910BD006400402402002072
:1050B000104810B50E4901600521416000214FF0F4
:1050C0004072C0E902124FF40032026152014261A3
:1050D0000176012242768176C17601774177FCF72D
:1050E000FDFD002803D0BDE81040FCF7B7B910BDA6
:1050F000006800404C020020254808B5016841F4D2
:1051000080010160016801F480010091016841F4AF
:10511000001101600068002200F4001000900521D9
:105120000C20FDF77BFB0C20FDF76CFB002205211A
:105130000E20FDF773FB0E20FDF764FB0022052116
:105140001020FDF76BFB1020FDF75CFB0022052112
:105150001120FDF763FB1120FDF754FB0022052110
:105160003920FDF75BFB3920FDF74CFB00220521C0
:105170003A20FDF753FB3A20FDF744FB00220521BE
:105180004520FDF74BFBBDE808404520FDF73ABB45
:105190003038024010B5A4B0142227496846FBF706
:1051A000B0F80021684604F0E1FA244C22491422A8
:1051B0002060143105A8FBF7A4F8002105A804F02D
:1051C000D5FA1D496060142228310AA8FBF799F826
:1051D00000210AA804F0CAFA1749A06014223C3141
:1051E0000FA8FBF78EF800210FA804F0BFFA1249B0
:1051F000E0601422503114A8FBF783F8002114A8B2
:1052000004F0B4FA0C4920611422643119A8FBF7A8
:1052100078F8002119A804F0A9FA0749606114225E
:1052200078311EA8FBF76DF800211EA804F09EFA45
:10523000A06124B010BD000048AE000804000020AA
:105240002DE9F04F87B014216846FBF773F85D48ED
:105250000024016841F010010160016801F01001B3
:105260000591016841F002010160016801F002014D
:105270000591016841F040010160016801F04001C1
:105280000591016841F004010160016801F0040129
:105290000591016841F001010160016801F001011F
:1052A0000591016841F008010160016801F0080101
:1052B0000591016841F480710160016801F4807119
:1052C0000591016841F080010160016801F08001F1
:1052D0000591016841F0200101600068DFF8E8B045
:1052E00000F020000590002284215846FDF706FAC0
:1052F000DFF8D890002242F2FE114846FDF7FEF991
:10530000DFF8CC8001223C214046FDF7F7F9DFF8B9
:10531000C4A044F24007002239465046FDF7EEF99A
:10532000842000900125CDE9015469465846039434
:10533000FDF7FAF8022628480096CDE901046946EF
:105340005846FDF7F1F868030090CDE9015469462D
:1053500048460394FDF7E8F86802CDE90004694681
:105360001E480294FDF7E0F83C20CDE90005CDE9A8
:10537000025669464046FDF7D7F84FF4FF70CDE975
:105380000005CDE9024669464846FDF7CDF800978D
:10539000CDE90154694650460394FDF7C5F8A802CB
:1053A000CDE9000469460E480294FDF7BDF8E80314
:1053B000CDE90004694658460294FDF7B5F807B0F8
:1053C000BDE8F08F30380240001002400018024063
:1053D000001C024000140240000011100020024096
:1053E000000C024010B586B014216846FAF7A2FFFF
:1053F0001F4800241D490594C0E900147F218160E5
:10540000FF21C0E9031444618461FDF785FE08B102
:10541000FCF724F88DF800408DF801408DF802402B
:1054200003940122694612480494FDF73BFF08B13A
:10543000FCF714F801208DF814008DF815008DF894
:10544000160002468DF8174005A90948FDF7C6FE6B
:1054500008B1FCF703F8002211460548FDF7FAFDF4
:10546000002801D0FBF7FAFF06B010BD002800406D
:10547000740200200E4810B50C4901600021416003
:105480008160C160016141618161FEF7BFF908B1CE
:10549000FBF7E4FF4FF400610548FDF797FF002894
:1054A00003D0BDE81040FBF7D9BF10BD002C014070
:1054B00094020020104810B50E4901604FF482712B
:1054C000416000218160C1604FF400720161C0E958
:1054D00005123022C0E90721416281620A21C162BE
:1054E000FEF72EFA002803D0BDE81040FBF7B6BF48
:1054F00010BD0000005001401803002010B588B016
:105500001C216846FAF716FF164815490024016069
:105510005921C0E9011440F6C311C0E90314FEF794
:10552000E6FD08B1FBF79AFF602000904FF47A7017
:10553000CDE90104002269460A480494FEF76FFD94
:1055400008B1FBF78BFF042269460648FEF767FDAA
:1055500008B1FBF783FF0348FEF788FC08B010BDD5
:1055600000180040D804002010B590B000240E941C
:105570001C2168460F94FAF7DDFE1C2107A8FAF7F4
:10558000D9FE2D482B490160B321C0E9011440F632
:10559000C311C0E903144461FEF7A9FD08B1FBF78C
:1055A0005DFF0E940EA924480F94FEF75AFB08B134
:1055B000FBF754FF602000904FF47A70CDE90104AE
:1055C000039404940594002269461B480694FEF750
:1055D00026FD08B1FBF742FF042269461648FEF794
:1055E0001EFD08B1FBF73AFF082269461248FEF794
:1055F00016FD08B1FBF732FF0C2269460E48FEF794
:105600000EFD08B1FBF72AFF0794089409944FF4A4
:1056100000500A94CDE90B4007A907480D94FEF706
:10562000F3FA08B1FBF71AFF0348FEF71FFC10B0AE
:1056300010BD0000000001407003002010B58AB0CA
:10564000002407941C2168460894FAF773FE224848
:105650004FF0804101605921C0E9011440F6C311A7
:10566000C0E90314FEF743FD08B1FBF7F7FE07940A
:1056700007A919480894FEF7F4FA08B1FBF7EEFE03
:10568000602000904FF47A70CDE901040022694651
:1056900011480494FEF7C3FC08B1FBF7DFFE0422B7
:1056A00069460D48FEF7BBFC08B1FBF7D7FE0822A0
:1056B00069460948FEF7B3FC08B1FBF7CFFE0C22A0
:1056C00069460548FEF7ABFC08B1FBF7C7FE024888
:1056D000FEF7CCFB0AB010BDAC03002010B58AB0B9
:1056E000002407941C2168460894FAF723FE194801
:1056F000174901605921C0E90114C4600461FEF733
:10570000F6FC08B1FBF7AAFE079407A91148089414
:10571000FEF7A7FA08B1FBF7A1FE6020CDE900046F
:105720000294002269460B480494FEF778FC08B105
:10573000FBF794FE042269460648FEF770FC08B1A8
:10574000FBF78CFE0348FEF791FB0AB010BD00008A
:1057500000040040E803002010B58AB0002407943C
:105760001C2168460894FAF7E5FD234821490160A9
:105770005921C0E9011440F6C311C0E90314FEF732
:10578000B6FC08B1FBF76AFE079407A91A4808940B
:10579000FEF767FA08B1FBF761FE602000904FF456
:1057A0007A70CDE901040022694613480494FEF79B
:1057B00036FC08B1FBF752FE042269460E48FEF79C
:1057C0002EFC08B1FBF74AFE082269460A48FEF79C
:1057D00026FC08B1FBF742FE0C2269460648FEF79C
:1057E0001EFC08B1FBF73AFE0348FEF73FFB0AB088
:1057F00010BD0000000800402404002010B58AB04D
:10580000002407941C2168460894FAF793FD234866
:10581000214901605921C0E9011440F6C311C0E9D2
:105820000314FEF764FC08B1FBF718FE079407A900
:105830001A480894FEF715FA08B1FBF70FFE60202E
:1058400000904FF47A70CDE90104002269461348B4
:105850000494FEF7E4FB08B1FBF700FE042269465E
:105860000E48FEF7DCFB08B1FBF7F8FD082269469D
:105870000A48FEF7D4FB08B1FBF7F0FD0C2269469D
:105880000648FEF7CCFB08B1FBF7E8FD0348FEF73E
:10589000EDFA0AB010BD0000000C004060040020CA
:1058A00010B590B000240E941C2168460F94FAF7AE
:1058B00041FD1C2107A8FAF73DFD2D482B49016049
:1058C000B321C0E9011440F6C311C0E903144461D7
:1058D000FEF70DFC08B1FBF7C1FD0E940EA924489C
:1058E0000F94FEF7BEF908B1FBF7B8FD60200090F9
:1058F0004FF47A70CDE901040394049405940022D6
:1059000069461B480694FEF78AFB08B1FBF7A6FD23
:10591000042269461648FEF782FB08B1FBF79EFD9C
:10592000082269461248FEF77AFB08B1FBF796FD9C
:105930000C2269460E48FEF772FB08B1FBF78EFD9C
:105940000794089409944FF400500A94CDE90B4051
:1059500007A907480D94FEF757F908B1FBF77EFD3C
:105960000348FEF783FA10B010BD000000040140A8
:105970009C0400200D4810B50B4901600C494160A2
:1059800000214FF480628160C0E903120C22C0E95B
:105990000521C161FEF70AFD002803D0BDE81040D3
:1059A000FBF75CBD10BD0000001001401405002095
:1059B000A08601000C4810B50A4901604FF4E1319E
:1059C0004160002181600C22C160C0E90412816144
:1059D000C161FEF7EBFC002803D0BDE81040FBF7E7
:1059E0003DBD10BD00440040540500200C4810B5DA
:1059F0000A4901604FF4E1314160002181600C22CD
:105A0000C160C0E904128161C161FEF7CFFC0028CA
:105A100003D0BDE81040FBF721BD10BD0048004099
:105A2000940500200C4810B50A4901604FF461212B
:105A30004160002181600C22C160C0E904128161D3
:105A4000C161FEF7B3FC002803D0BDE81040FBF7AE
:105A500005BD10BD00140140D4050020FEE77047CD
:105A60000907090E002806DA00F00F0000F1E02017
:105A700080F8141D704700F1E02080F80014704792
:105A800090ED060A80ED030AD0ED040A70EE800A5C
:105A9000C0ED040A90ED071A70EE411AC0ED051A28
:105AA00080ED070A90ED081AF4EEC10AF1EE10FA43
:105AB00006DCB1EE411AF4EEC10AF1EE10FA01D2A1
:105AC00080ED041AD0ED000A90ED041A20EE800A51
:105AD000D0ED010A00EE810AD0ED020A00EEA10A23
